:1000000010C0189518951895189518951895189565
:100010001895189518951895189518951895189578
:1000200018958FE58DBFC0E4E6E24E2E81E08EBFCD
:10003000D1E0F1E05F2EA89584B7082E877F84BFBA
:1000400088E1992781BD91BD6624479A3798B89A6F
:10005000B99AAFEBB0E084B78C930091BF00013048
:1000600081E009F080E08F930091BF00023081E0D1
:1000700009F080E09F91892B882309F403C080E078
:100080008093BE000091BE00063108F403C080E0FA
:100090008093BE00AEEBB0E08C918F5F8C930091AB
:1000A000BE00013009F087C0D098D89AD198D99A6B
:1000B000D298DA9A0000AFEBB0E089B38C9300914C
:1000C000BF0047E00423ADEBB0E00C93D898D9987B
:1000D000DA9883E0E9E35DD5A0E6B0E00D931C93E8
:1000E000A0E6B0E00D911C91013050E0150708F436
:1000F0004DC081E08093A200A0E6B0E04D915C91FC
:10010000A2EAB0E00D9111270417150710F009F0CD
:100110003DC00091A20041E0041BA3EAB0E00C93B3
:10012000A3EAB0E00C9148E071D54C93A3EAB0E0AB
:100130008C918F5F8C930091A200013009F010C068
:1001400083E0E9E3B1D4A3EAB0E0AD90BB24A1E63B
:10015000B0E0AA0DBB1DE5EDF0E098E052D50FC070
:1001600083E0E9E3A6D4A3EAB0E0AD90BB24A1E626
:10017000B0E0AA0DBB1DE5EDF0E098E042D5A2EAA3
:10018000B0E08C918F5F8C9308F4B6CF0091BD00E6
:1001900040916000040FAFEBB0E00C930091BF0002
:1001A000083008F407C008E040916000041BADEB84
:1001B000B0E00C93CCC10091600042E027D5AFEBDA
:1001C000B0E04C93AFEBB0E08C918F5F8C9340919B
:1001D000BF000091BE00041710F009F058C1AEEB4B
:1001E000B0E00C9100FB0EF42CC00091BE0042E088
:1001F00019D5A2EAB0E00C930091A20041E0041BE3
:10020000A3EAB0E00C93A3EAB0E00C9148E0FED47E
:100210004C93A3EAB0E08C918F5F8C9383E0E9E389
:10022000A3EAB0E0AD90BB24A1E6B0E0AA0DBB1DEF
:10023000C5D462FA0EF404C054E483E0E9E3CAD3FF
:1002400025C183E0E9E3A3EAB0E0AD90BB24A1E6D9
:10025000B0E0AA0DBB1DB2D462FA0EF417C15EEB7A
:1002600083E0E9E3B7D383E0A0ECB0E0E9E329E081
:100270002A93D2D388E0E0ECF0E0E4D4402F009160
:10028000C800041709F002C1A3EAB0E0AD90BB2496
:10029000A1E6B0E0AA0DBB1D0C91003109F062C0CF
:1002A0009091C1008091C000A9ECB0E08D939C9327
:1002B000A9ECB0E08C918E7F8C93A9ECB0E00D910D
:1002C0001C9144E650E07DD2A9ECB0E00D931C9364
:1002D000A9ECB0E00D911C9109511040A9ECB0E0DF
:1002E0000D931C93A7ECB0E00D911127A6ECB0E0A4
:1002F0004D915527041B150BABECB0E00D931C93EF
:10030000ABECB0E00D911C9144E650E05AD2ABEC5E
:10031000B0E00D931C93ABECB0E00D911C91A7ECF9
:10032000B0E04D91552752D2ABECB0E04D935C93C9
:10033000A9ECB0E00D911C91ABECB0E04D915C915B
:10034000040F151FA9ECB0E00D931C93A9ECB0E0CD
:100350000D911C9142E050E039D2A4EAB0E04D93F7
:100360005C935BC0023209F02BC09091C100809178
:10037000C000A9ECB0E08D939C93A9ECB0E00D9186
:100380001D9117FB1EF42FEF3FEF02C022273327EA
:1003900044E650E060E070E066D2ADECB0E00D9372
:1003A0001D932D933D9394E0ADECB0E0C9D2ADEC3C
:1003B000B0E08D919C91A4EAB0E08D939C932DC008
:1003C000083209F02AC09091C1008091C000A9ECC8
:1003D000B0E08D939C93A9ECB0E00D911D9117FBBB
:1003E0001EF42FEF3FEF02C02227332744E650E0F0
:1003F00060E070E038D2ADECB0E00D931D932D932A
:100400003D9394E0ADECB0E09BD2ADECB0E08D91CB
:100410009C91A4EAB0E08D939C93A4EAB0E00D9186
:100420001C914AE050E0D2D1A4EAB0E04D935C9335
:1004300080E08093C0000091A20041E0041BAFEB7C
:10044000B0E00C930091BD004091BF00040FA1ECFF
:10045000B0E00C93A4EAB0E00D911C91003050E0A4
:1004600015070CF401C010C0A1ECB0E08C918860BD
:100470008C93A4EAB0E00D911C914FEF5FEFA1D1F6
:10048000A4EAB0E00D931C9375D0BDD060C000917C
:10049000600042E0BBD3AFEBB0E04C93AFEBB0E019
:1004A0008C918E5F8C934091BF000091BE00041729
:1004B00009F04DC00091BD0040916000040FAFEB0A
:1004C000B0E00C930091BF00073010F009F03FC07E
:1004D00083E886B980E887B9C09A07B1007C0760D5
:1004E00007B91AD2A4EAB0E08D939C93C0983798CC
:1004F000A4EAB0E00D911D9117FB1EF42FEF3FEF22
:1005000002C02227332740E050E060E170E0ABD129
:10051000ADECB0E00D931D932D933D9395E1ADECC3
:10052000B0E003D2ADECB0E08D919C91A4EAB0E0D4
:100530008D939C9380E08093C0000091BD0040911A
:100540006000040FA1ECB0E00C9314D05CD070E01C
:1005500074BF74B7777F74BF89E391E281BD91BDA9
:1005600081B5886081BD75B7777C706375BF8895EC
:10057000F894FFCF80E08093BF00A4EAB0E00D9133
:100580001C91043650E015070CF001C010C0A4EA1D
:10059000B0E00D911C9104561040A4EAB0E00D9318
:1005A0001C93AFEBB0E08C918F5F8C93E6CF809182
:1005B000BF008093C40080E08093BF00A4EAB0E055
:1005C0000D911C910A3050E015070CF001C010C0CD
:1005D000A4EAB0E00D911C910A501040A4EAB0E0EA
:1005E0000D931C93AFEBB0E08C918F5F8C93E6CFB3
:1005F0008091BF008093C300A4EAB0E08C91A2EC8C
:10060000B0E08C930895A0EBB0E0E2E7FCE02AD3E1
:100610008AE08093BF0068948091BF00A0EBB0E0B7
:10062000AAD19FD10C9016F0092201C0082A0C9281
:10063000AFEBB0E08C918B5F8C930091BF000E32DA
:1006400008F4E9CF80E08093BB0080E08093BC0099
:1006500080E08093BA00AAEBB0E08C918F5F8C931E
:10066000AAEBB0E0AD90BB24AFEBB0E0AA0DBB1D90
:100670008C918093B9005FD00091BA00053008F4E6
:10068000EACFAAEBB0E08C918F5F8C938091BB0096
:100690008093B90050D0ACEBB0E08C918B5F8C9321
:1006A0000091BC004FE00423A9EBB0E00C93AAEB4F
:1006B000B0E08C918F5F8C933ED0C09A80E08093A5
:1006C000BF008091BF00A0EBB0E055D14AD10C90A3
:1006D0000822689409F4E8940EF011C0C19AEF93CF
:1006E000FF93E8E5F0E005D1FF91EF91C198EF931A
:1006F000FF93EFEBF0E0FDD0FF91EF9110C0C19AB6
:10070000EF93FF93E2EDF0E0F4D0FF91EF91C19809
:10071000EF93FF93E8E4F0E0ECD0FF91EF91AFEBC3
:10072000B0E08C918F5F8C930091BF000E3208F483
:10073000C8CFC09808950091BA0045E067D2A8EBF1
:10074000B0E04C93A8EBB0E08C918A5F8C9380E092
:100750008093BF008091BF00A9EBB0E00CD101D124
:100760000C900822689409F4E8948091B800A0EBFA
:10077000B0E001D1F6D00C9016F0092201C0082A91
:100780000C92A8EBB0E08C918F5F8C93AFEBB0E054
:100790008C918F5F8C930091BF00043008F4DACF06
:1007A0000091BB004091B9000427ABEBB0E00C9383
:1007B0000091BC004091B900040FACEBB0E00C9389
:1007C000089508D03DD000FC10D0089503D01ED06D
:1007D00001F8F9CF0024E89457FF02C009D06894CB
:1007E00000F80BD010F80124089502D009D0089524
:1007F000509540954F5F5F4F0895E89417FF089517
:10080000009510950F5F1F4F68940895352F242F82
:10081000E894452B11F468940895512F402F002738
:10082000112780E1440F551F001F111F021B130BDE
:10083000416018F4020F131F4E7F8A9599F70895AF
:10084000752F642F55274427FF93F1E1889405C045
:1008500010F4460F571F5695479517950795FA952B
:10086000B9F7FF91089522D006D000FC01D0089579
:1008700028D030D00895842F952FA62FB72F442746
:10088000552766277727F1E2889409C020F4480F9E
:10089000591F6A1F7B1F7695679557954795379522
:1008A000279517950795FA9589F708950024E894F8
:1008B00077FF02C006D0689400F809D010F8012430
:1008C000089512D04F5F5F4F6F4F7F4F0895E894A8
:1008D00037FF089500951095209530950F5F1F4FB5
:1008E0002F4F3F4F689408954095509560957095AF
:1008F00008953197F1F70895689462F80895E8949F
:1009000062F808950D911D912D913C9108953C93AD
:100910002E931E930E930895369A3699FECF369AEB
:100920003699FECF84B195B10895903041F0EADF59
:1009300036952795179507959A95D1F7E8CF08959D
:10094000903071F0DFDF772737FD70E8072E000C5D
:1009500037952795179507959A95C1F7372BD7CFD8
:10096000089591E0882321F08894991F8A95E9F7EA
:10097000892F90950895883018F011968850FBCFF4
:1009800008950181082B0183128119231283089590
:10099000B6DFFF27E6DFF5DFEF93FF93E4E7F0E054
:1009A000A8DFFF91EF91182B128309230183EF93A6
:1009B000FF93EEE0F0E09DDFFF91EF9110811823AF
:1009C00009F09ADFEF93FF93E3E6F0E092DFFF9107
:1009D000EF910895C6DFFF2721E048E005C0C1DFA1
:1009E000FF2729915D9148E0CCDF579510F4182B33
:1009F0001283EF93FF93EAE0F0E07BDFFF91EF914A
:100A0000182B1283EF93E2E0EA95F1F7EF914A9504
:100A100059F72A9539F70895A4DFFF27299148E06F
:100A20005527AFDF09230183EF93E1E0EA95F1F762
:100A3000EF9188941081182309F008945795EF934B
:100A4000FF93EAE0F0E055DFFF91EF914A9549F717
:100A50005D932A9521F7089594DF09230183EF938D
:100A6000E1E0EA95F1F7EF91E8941081182309F09D
:100A70006894EF93FF93EAE0F0E03BDFFF91EF91A2
:100A800008957FDF16F4182B1283EF93FF93EAE0AB
:100A9000F0E02FDFFF91EF91182B1283EF93E2E04C
:100AA000EA95F1F7EF91089533273093D40030930E
:100AB000D1006EDF0EF458C03091D10030FD54C02B
:100AC00066276093D30063956093D20021E050EFD6
:100AD00048E08ADFC1DF31F9BFDF32F9632F66708A
:100AE000663009F441C0603019F031FB40D025C0B8
:100AF0006091D2007091D4006717B1F0C0F48F9369
:100B00009F93862F8A95A5EDB0E035DF2ADF7C9193
:100B100078236894772329F4E8946091D200609355
:100B2000D3009F918F9109C0689421D006C0E894AA
:100B30001ED06091D2006093D300A3DF6091D200F9
:100B400063956093D200613409F0C4CF6091D30003
:100B50006093D4006623E89409F4689430F93093E4
:100B6000D100E89462F80895689462F808958F932C
:100B70009F93A5EDB0E08091D2008A95FCDEF1DE76
:100B80007C9116F4782B01C079237C939F918F91EF
:100B900008958F9389DF8F91A0E0B0E066F0119601
:100BA0008F93AF93BF9385DFBF91AF918F910EF07D
:100BB000F6CFE89462F80A2F1B2F0895AF93BF93E6
:100BC000EF93FF9338E0E5EDF0E00D9101933A9556
:100BD000E1F7FF91EF9130E43093D4003327309365
:100BE000D10067DF38E0BF91AF91E5EDF0E00D9106
:100BF0004191041719F43A95D1F708957DDE0895CF
:100C000094E081918D939A95E1F70895FF9355278C
:100C1000F8E0469508F4500F57954795FA95D1F7A7
:100C2000FF910895FF93881BF9E0001FFA9511F4D6
:100C3000FF910895881F841B18F4840F8894F5CFC2
:100C40000894F3CF00276CE8719198E006957795AA
:100C500077FF18F477FD08F006279A95B9F78A957B
:100C600099F7089588E005900D928A95E1F7189715
:0A0C700008950000000000000000DD
:00000001FF
